:020000040800F2
:1000000000500020ED0200083D0300083D030008F9
:100010003D0300083D0300083D0300080000000008
:100020000000000000000000000000003D03000888
:100030003D030008000000003D0300083D030008E8
:100040003D0300083D0300083D0300083D03000890
:100050003D0300083D0300083D0300083D03000880
:100060003D0300083D0300083D0300083D03000870
:100070003D0300083D0300083D0300083D03000860
:100080003D0300083D0300083D0300083D03000850
:100090003D0300083D0300083D0300083D03000840
:1000A0003D0300083D0300083D0300083D03000830
:1000B0003D0300083D0300083D0300083D03000820
:1000C0003D0300083D0300083D0300083D03000810
:1000D0003D0300083D0300083D0300083D03000800
:1000E0003D0300083D030008000000003D03000838
:1000F0003D0300083D0300083D0300083D030008E0
:100100003D0300083D0300083D0300083D030008CF
:100110003D0300083D0300083D0300083D030008BF
:100120003D0300083D0300083D0300083D030008AF
:1001300010B5054C237833B9044B13B10448AFF321
:1001400000800123237010BD00000020000000008B
:100150008803000808B5034B1BB103490348AFF3FC
:10016000008008BD00000000040000208803000893
:1001700080B400AF2E4B9B692D4A43F0100393616E
:100180002C4B1B682B4A23F00F031360294B1B6871
:10019000284A43F003031360264B1B68254A23F0CB
:1001A000F0031360234B1B68224A43F030031360B3
:1001B000204B1B681F4A23F4706313601D4B1B68A0
:1001C0001C4A43F4407313601A4B1B68194A23F40A
:1001D00070431360174B1B68164A43F44053136077
:1001E000144B1B68134A23F470231360114B1B68D4
:1001F000104A43F4403313600E4B1B680D4A23F43E
:10020000700313600B4B1B680A4A43F440131360DE
:10021000084B1B68074A23F070631360054B1B688B
:10022000044A43F04073136000BFBD4680BC704772
:10023000001002400010014080B400AF224B9B69C7
:10024000214A43F008039361204B1B681F4A23F0A7
:100250000F0313601D4B1B681C4A43F0030313601C
:100260001A4B1B68194A23F0F0031360174B1B68E5
:10027000164A43F030031360144B1B68134A23F4EF
:1002800070631360114B1B68104A43F44073136092
:100290000E4B1B680D4A23F4704313600B4B1B6815
:1002A0000A4A43F440531360074B9B69064A43F0E4
:1002B00004039361064B1B68054A23F00F03136088
:1002C00000BFBD4680BC704700100240000C0140DA
:1002D0000008014080B500AFFFF74AFFFFF7ACFF11
:1002E000014B7F22DA60FBE7001001400D48854694
:1002F000AFF300800C480D490D4A002302E0D458AA
:10030000C4500433C4188C42F9D30A4A0A4C00235F
:1003100001E013600432A242FBD300F011F8FFF7B2
:10032000D9FFFEE700500020000000200000002060
:10033000A8030008000000201C000020FEE70000C9
:1003400070B500260C4D0D4C641BA410A64209D1BB
:1003500000F01AF800260A4D0A4C641BA410A642AD
:1003600005D170BD55F8043B98470136EEE755F8C6
:10037000043B98470136F2E7A0030008A0030008F9
:10038000A0030008A4030008F8B500BFF8BC08BC2F
:100390009E467047F8B500BFF8BC08BC9E46704743
:0403A00055010008FB
:0403A400310100081B
:04000005080002ED00
:00000001FF
